{
  "_format": "hh-sol-artifact-1",
  "contractName": "PositionManager",
  "sourceName": "contracts/PositionManager.sol",
  "abi": [
    {
      "inputs": [
        {
          "internalType": "address",
          "name": "_poolManger",
          "type": "address"
        }
      ],
      "stateMutability": "nonpayable",
      "type": "constructor"
    },
    {
      "inputs": [
        {
          "internalType": "address",
          "name": "sender",
          "type": "address"
        },
        {
          "internalType": "uint256",
          "name": "tokenId",
          "type": "uint256"
        },
        {
          "internalType": "address",
          "name": "owner",
          "type": "address"
        }
      ],
      "name": "ERC721IncorrectOwner",
      "type": "error"
    },
    {
      "inputs": [
        {
          "internalType": "address",
          "name": "operator",
          "type": "address"
        },
        {
          "internalType": "uint256",
          "name": "tokenId",
          "type": "uint256"
        }
      ],
      "name": "ERC721InsufficientApproval",
      "type": "error"
    },
    {
      "inputs": [
        {
          "internalType": "address",
          "name": "approver",
          "type": "address"
        }
      ],
      "name": "ERC721InvalidApprover",
      "type": "error"
    },
    {
      "inputs": [
        {
          "internalType": "address",
          "name": "operator",
          "type": "address"
        }
      ],
      "name": "ERC721InvalidOperator",
      "type": "error"
    },
    {
      "inputs": [
        {
          "internalType": "address",
          "name": "owner",
          "type": "address"
        }
      ],
      "name": "ERC721InvalidOwner",
      "type": "error"
    },
    {
      "inputs": [
        {
          "internalType": "address",
          "name": "receiver",
          "type": "address"
        }
      ],
      "name": "ERC721InvalidReceiver",
      "type": "error"
    },
    {
      "inputs": [
        {
          "internalType": "address",
          "name": "sender",
          "type": "address"
        }
      ],
      "name": "ERC721InvalidSender",
      "type": "error"
    },
    {
      "inputs": [
        {
          "internalType": "uint256",
          "name": "tokenId",
          "type": "uint256"
        }
      ],
      "name": "ERC721NonexistentToken",
      "type": "error"
    },
    {
      "anonymous": false,
      "inputs": [
        {
          "indexed": true,
          "internalType": "address",
          "name": "owner",
          "type": "address"
        },
        {
          "indexed": true,
          "internalType": "address",
          "name": "approved",
          "type": "address"
        },
        {
          "indexed": true,
          "internalType": "uint256",
          "name": "tokenId",
          "type": "uint256"
        }
      ],
      "name": "Approval",
      "type": "event"
    },
    {
      "anonymous": false,
      "inputs": [
        {
          "indexed": true,
          "internalType": "address",
          "name": "owner",
          "type": "address"
        },
        {
          "indexed": true,
          "internalType": "address",
          "name": "operator",
          "type": "address"
        },
        {
          "indexed": false,
          "internalType": "bool",
          "name": "approved",
          "type": "bool"
        }
      ],
      "name": "ApprovalForAll",
      "type": "event"
    },
    {
      "anonymous": false,
      "inputs": [
        {
          "indexed": true,
          "internalType": "address",
          "name": "from",
          "type": "address"
        },
        {
          "indexed": true,
          "internalType": "address",
          "name": "to",
          "type": "address"
        },
        {
          "indexed": true,
          "internalType": "uint256",
          "name": "tokenId",
          "type": "uint256"
        }
      ],
      "name": "Transfer",
      "type": "event"
    },
    {
      "inputs": [
        {
          "internalType": "address",
          "name": "to",
          "type": "address"
        },
        {
          "internalType": "uint256",
          "name": "tokenId",
          "type": "uint256"
        }
      ],
      "name": "approve",
      "outputs": [],
      "stateMutability": "nonpayable",
      "type": "function"
    },
    {
      "inputs": [
        {
          "internalType": "address",
          "name": "owner",
          "type": "address"
        }
      ],
      "name": "balanceOf",
      "outputs": [
        {
          "internalType": "uint256",
          "name": "",
          "type": "uint256"
        }
      ],
      "stateMutability": "view",
      "type": "function"
    },
    {
      "inputs": [
        {
          "internalType": "uint256",
          "name": "positionId",
          "type": "uint256"
        }
      ],
      "name": "burn",
      "outputs": [
        {
          "internalType": "uint256",
          "name": "amount0",
          "type": "uint256"
        },
        {
          "internalType": "uint256",
          "name": "amount1",
          "type": "uint256"
        }
      ],
      "stateMutability": "nonpayable",
      "type": "function"
    },
    {
      "inputs": [
        {
          "internalType": "uint256",
          "name": "positionId",
          "type": "uint256"
        },
        {
          "internalType": "address",
          "name": "recipient",
          "type": "address"
        }
      ],
      "name": "collect",
      "outputs": [
        {
          "internalType": "uint256",
          "name": "amount0",
          "type": "uint256"
        },
        {
          "internalType": "uint256",
          "name": "amount1",
          "type": "uint256"
        }
      ],
      "stateMutability": "nonpayable",
      "type": "function"
    },
    {
      "inputs": [],
      "name": "getAllPositions",
      "outputs": [
        {
          "components": [
            {
              "internalType": "uint256",
              "name": "id",
              "type": "uint256"
            },
            {
              "internalType": "address",
              "name": "owner",
              "type": "address"
            },
            {
              "internalType": "address",
              "name": "token0",
              "type": "address"
            },
            {
              "internalType": "address",
              "name": "token1",
              "type": "address"
            },
            {
              "internalType": "uint32",
              "name": "index",
              "type": "uint32"
            },
            {
              "internalType": "uint24",
              "name": "fee",
              "type": "uint24"
            },
            {
              "internalType": "uint128",
              "name": "liquidity",
              "type": "uint128"
            },
            {
              "internalType": "int24",
              "name": "tickLower",
              "type": "int24"
            },
            {
              "internalType": "int24",
              "name": "tickUpper",
              "type": "int24"
            },
            {
              "internalType": "uint128",
              "name": "tokensOwed0",
              "type": "uint128"
            },
            {
              "internalType": "uint128",
              "name": "tokensOwed1",
              "type": "uint128"
            },
            {
              "internalType": "uint256",
              "name": "feeGrowthInside0LastX128",
              "type": "uint256"
            },
            {
              "internalType": "uint256",
              "name": "feeGrowthInside1LastX128",
              "type": "uint256"
            }
          ],
          "internalType": "struct IPositionManager.PositionInfo[]",
          "name": "positionInfo",
          "type": "tuple[]"
        }
      ],
      "stateMutability": "view",
      "type": "function"
    },
    {
      "inputs": [
        {
          "internalType": "uint256",
          "name": "tokenId",
          "type": "uint256"
        }
      ],
      "name": "getApproved",
      "outputs": [
        {
          "internalType": "address",
          "name": "",
          "type": "address"
        }
      ],
      "stateMutability": "view",
      "type": "function"
    },
    {
      "inputs": [],
      "name": "getSender",
      "outputs": [
        {
          "internalType": "address",
          "name": "",
          "type": "address"
        }
      ],
      "stateMutability": "view",
      "type": "function"
    },
    {
      "inputs": [
        {
          "internalType": "address",
          "name": "owner",
          "type": "address"
        },
        {
          "internalType": "address",
          "name": "operator",
          "type": "address"
        }
      ],
      "name": "isApprovedForAll",
      "outputs": [
        {
          "internalType": "bool",
          "name": "",
          "type": "bool"
        }
      ],
      "stateMutability": "view",
      "type": "function"
    },
    {
      "inputs": [
        {
          "components": [
            {
              "internalType": "address",
              "name": "token0",
              "type": "address"
            },
            {
              "internalType": "address",
              "name": "token1",
              "type": "address"
            },
            {
              "internalType": "uint32",
              "name": "index",
              "type": "uint32"
            },
            {
              "internalType": "uint256",
              "name": "amount0Desired",
              "type": "uint256"
            },
            {
              "internalType": "uint256",
              "name": "amount1Desired",
              "type": "uint256"
            },
            {
              "internalType": "address",
              "name": "recipient",
              "type": "address"
            },
            {
              "internalType": "uint256",
              "name": "deadline",
              "type": "uint256"
            }
          ],
          "internalType": "struct IPositionManager.MintParams",
          "name": "params",
          "type": "tuple"
        }
      ],
      "name": "mint",
      "outputs": [
        {
          "internalType": "uint256",
          "name": "positionId",
          "type": "uint256"
        },
        {
          "internalType": "uint128",
          "name": "liquidity",
          "type": "uint128"
        },
        {
          "internalType": "uint256",
          "name": "amount0",
          "type": "uint256"
        },
        {
          "internalType": "uint256",
          "name": "amount1",
          "type": "uint256"
        }
      ],
      "stateMutability": "payable",
      "type": "function"
    },
    {
      "inputs": [
        {
          "internalType": "uint256",
          "name": "amount0",
          "type": "uint256"
        },
        {
          "internalType": "uint256",
          "name": "amount1",
          "type": "uint256"
        },
        {
          "internalType": "bytes",
          "name": "data",
          "type": "bytes"
        }
      ],
      "name": "mintCallback",
      "outputs": [],
      "stateMutability": "nonpayable",
      "type": "function"
    },
    {
      "inputs": [],
      "name": "name",
      "outputs": [
        {
          "internalType": "string",
          "name": "",
          "type": "string"
        }
      ],
      "stateMutability": "view",
      "type": "function"
    },
    {
      "inputs": [
        {
          "internalType": "uint256",
          "name": "tokenId",
          "type": "uint256"
        }
      ],
      "name": "ownerOf",
      "outputs": [
        {
          "internalType": "address",
          "name": "",
          "type": "address"
        }
      ],
      "stateMutability": "view",
      "type": "function"
    },
    {
      "inputs": [],
      "name": "poolManager",
      "outputs": [
        {
          "internalType": "contract IPoolManager",
          "name": "",
          "type": "address"
        }
      ],
      "stateMutability": "view",
      "type": "function"
    },
    {
      "inputs": [
        {
          "internalType": "uint256",
          "name": "",
          "type": "uint256"
        }
      ],
      "name": "positions",
      "outputs": [
        {
          "internalType": "uint256",
          "name": "id",
          "type": "uint256"
        },
        {
          "internalType": "address",
          "name": "owner",
          "type": "address"
        },
        {
          "internalType": "address",
          "name": "token0",
          "type": "address"
        },
        {
          "internalType": "address",
          "name": "token1",
          "type": "address"
        },
        {
          "internalType": "uint32",
          "name": "index",
          "type": "uint32"
        },
        {
          "internalType": "uint24",
          "name": "fee",
          "type": "uint24"
        },
        {
          "internalType": "uint128",
          "name": "liquidity",
          "type": "uint128"
        },
        {
          "internalType": "int24",
          "name": "tickLower",
          "type": "int24"
        },
        {
          "internalType": "int24",
          "name": "tickUpper",
          "type": "int24"
        },
        {
          "internalType": "uint128",
          "name": "tokensOwed0",
          "type": "uint128"
        },
        {
          "internalType": "uint128",
          "name": "tokensOwed1",
          "type": "uint128"
        },
        {
          "internalType": "uint256",
          "name": "feeGrowthInside0LastX128",
          "type": "uint256"
        },
        {
          "internalType": "uint256",
          "name": "feeGrowthInside1LastX128",
          "type": "uint256"
        }
      ],
      "stateMutability": "view",
      "type": "function"
    },
    {
      "inputs": [
        {
          "internalType": "address",
          "name": "from",
          "type": "address"
        },
        {
          "internalType": "address",
          "name": "to",
          "type": "address"
        },
        {
          "internalType": "uint256",
          "name": "tokenId",
          "type": "uint256"
        }
      ],
      "name": "safeTransferFrom",
      "outputs": [],
      "stateMutability": "nonpayable",
      "type": "function"
    },
    {
      "inputs": [
        {
          "internalType": "address",
          "name": "from",
          "type": "address"
        },
        {
          "internalType": "address",
          "name": "to",
          "type": "address"
        },
        {
          "internalType": "uint256",
          "name": "tokenId",
          "type": "uint256"
        },
        {
          "internalType": "bytes",
          "name": "data",
          "type": "bytes"
        }
      ],
      "name": "safeTransferFrom",
      "outputs": [],
      "stateMutability": "nonpayable",
      "type": "function"
    },
    {
      "inputs": [
        {
          "internalType": "address",
          "name": "operator",
          "type": "address"
        },
        {
          "internalType": "bool",
          "name": "approved",
          "type": "bool"
        }
      ],
      "name": "setApprovalForAll",
      "outputs": [],
      "stateMutability": "nonpayable",
      "type": "function"
    },
    {
      "inputs": [
        {
          "internalType": "bytes4",
          "name": "interfaceId",
          "type": "bytes4"
        }
      ],
      "name": "supportsInterface",
      "outputs": [
        {
          "internalType": "bool",
          "name": "",
          "type": "bool"
        }
      ],
      "stateMutability": "view",
      "type": "function"
    },
    {
      "inputs": [],
      "name": "symbol",
      "outputs": [
        {
          "internalType": "string",
          "name": "",
          "type": "string"
        }
      ],
      "stateMutability": "view",
      "type": "function"
    },
    {
      "inputs": [
        {
          "internalType": "uint256",
          "name": "tokenId",
          "type": "uint256"
        }
      ],
      "name": "tokenURI",
      "outputs": [
        {
          "internalType": "string",
          "name": "",
          "type": "string"
        }
      ],
      "stateMutability": "view",
      "type": "function"
    },
    {
      "inputs": [
        {
          "internalType": "address",
          "name": "from",
          "type": "address"
        },
        {
          "internalType": "address",
          "name": "to",
          "type": "address"
        },
        {
          "internalType": "uint256",
          "name": "tokenId",
          "type": "uint256"
        }
      ],
      "name": "transferFrom",
      "outputs": [],
      "stateMutability": "nonpayable",
      "type": "function"
    }
  ],
  "bytecode": "0x6080604052600780546001600160b01b031916600117905534801561002357600080fd5b50604051613079380380613079833981016040819052610042916100cc565b6040518060400160405280600f81526020016e2baa2329bbb0b82837b9b4ba34b7b760891b815250604051806040016040528060048152602001630575446560e41b8152508160009081610096919061019b565b5060016100a3828261019b565b5050600680546001600160a01b0319166001600160a01b03939093169290921790915550610259565b6000602082840312156100de57600080fd5b81516001600160a01b03811681146100f557600080fd5b9392505050565b634e487b7160e01b600052604160045260246000fd5b600181811c9082168061012657607f821691505b60208210810361014657634e487b7160e01b600052602260045260246000fd5b50919050565b601f82111561019657806000526020600020601f840160051c810160208510156101735750805b601f840160051c820191505b81811015610193576000815560010161017f565b50505b505050565b81516001600160401b038111156101b4576101b46100fc565b6101c8816101c28454610112565b8461014c565b6020601f8211600181146101fc57600083156101e45750848201515b600019600385901b1c1916600184901b178455610193565b600084815260208120601f198516915b8281101561022c578785015182556020948501946001909201910161020c565b508482101561024a5786840151600019600387901b60f8161c191681555b50505050600190811b01905550565b612e11806102686000396000f3fe60806040526004361061012a5760003560e01c80636352211e116100ab5780639f382e9b1161006f5780639f382e9b14610413578063a22cb46514610433578063b88d4fde14610453578063c87b56dd14610473578063dc4c90d314610493578063e985e9c5146104b357600080fd5b80636352211e146102c557806370a08231146102e55780638d3c100a1461031357806395d89b411461033357806399fbab881461034857600080fd5b806323b872dd116100f257806323b872dd146102025780632c6cc6c71461022257806342842e0e1461025d57806342966c681461027d5780635e01eb5a146102b257600080fd5b806301ffc9a71461012f57806306fdde0314610164578063081812fc14610186578063095ea7b3146101be57806318f56a0a146101e0575b600080fd5b34801561013b57600080fd5b5061014f61014a36600461247e565b6104d3565b60405190151581526020015b60405180910390f35b34801561017057600080fd5b50610179610525565b60405161015b91906124eb565b34801561019257600080fd5b506101a66101a13660046124fe565b6105b7565b6040516001600160a01b03909116815260200161015b565b3480156101ca57600080fd5b506101de6101d936600461252c565b6105e0565b005b3480156101ec57600080fd5b506101f56105ef565b60405161015b9190612558565b34801561020e57600080fd5b506101de61021d3660046126b8565b61081b565b6102356102303660046126f9565b6108ab565b604080519485526001600160801b03909316602085015291830152606082015260800161015b565b34801561026957600080fd5b506101de6102783660046126b8565b611092565b34801561028957600080fd5b5061029d6102983660046124fe565b6110b2565b6040805192835260208301919091520161015b565b3480156102be57600080fd5b50336101a6565b3480156102d157600080fd5b506101a66102e03660046124fe565b6113b8565b3480156102f157600080fd5b50610305610300366004612714565b6113c3565b60405190815260200161015b565b34801561031f57600080fd5b5061029d61032e366004612731565b61140b565b34801561033f57600080fd5b506101796115c4565b34801561035457600080fd5b506103fa6103633660046124fe565b600860205260009081526040902080546001820154600280840154600385015460048601546005870154600688015460079098015496976001600160a01b039687169794871696841695600160a01b850463ffffffff1695600160c01b90950462ffffff16946001600160801b0380861695600160801b808204850b96600160981b90920490940b9482821694909104909116918d565b60405161015b9d9c9b9a99989796959493929190612761565b34801561041f57600080fd5b506101de61042e36600461280a565b6115d3565b34801561043f57600080fd5b506101de61044e36600461289b565b6117ce565b34801561045f57600080fd5b506101de61046e3660046128df565b6117d9565b34801561047f57600080fd5b5061017961048e3660046124fe565b6117f1565b34801561049f57600080fd5b506006546101a6906001600160a01b031681565b3480156104bf57600080fd5b5061014f6104ce3660046129c7565b611866565b60006001600160e01b031982166380ac58cd60e01b148061050457506001600160e01b03198216635b5e139f60e01b145b8061051f57506301ffc9a760e01b6001600160e01b03198316145b92915050565b606060008054610534906129f5565b80601f0160208091040260200160405190810160405280929190818152602001828054610560906129f5565b80156105ad5780601f10610582576101008083540402835291602001916105ad565b820191906000526020600020905b81548152906001019060200180831161059057829003601f168201915b5050505050905090565b60006105c282611894565b506000828152600460205260409020546001600160a01b031661051f565b6105eb8282336118cd565b5050565b60075460609061060a906001906001600160b01b0316612a45565b6001600160b01b031667ffffffffffffffff81111561062b5761062b6128c9565b6040519080825280602002602001820160405280156106c257816020015b604080516101a08101825260008082526020808301829052928201819052606082018190526080820181905260a0820181905260c0820181905260e08201819052610100820181905261012082018190526101408201819052610160820181905261018082015282526000199092019101816106495790505b50905060005b6007546106e0906001906001600160b01b0316612a45565b6001600160b01b03168163ffffffff1610156108175760086000610705836001612a64565b63ffffffff9081168252602080830193909352604091820160002082516101a0810184528154815260018201546001600160a01b039081169582019590955260028083015486169482019490945260038201549485166060820152600160a01b850483166080820152600160c01b90940462ffffff1660a085015260048101546001600160801b0380821660c0870152600160801b808304860b60e0880152600160981b90920490940b61010086015260058201548085166101208701520490921661014084015260068201546101608401526007909101546101808301528351849184169081106107f9576107f9612a80565b6020026020010181905250808061080f90612a96565b9150506106c8565b5090565b6001600160a01b03821661084a57604051633250574960e11b8152600060048201526024015b60405180910390fd5b60006108578383336118da565b9050836001600160a01b0316816001600160a01b0316146108a5576040516364283d7b60e01b81526001600160a01b0380861660048301526024820184905282166044820152606401610841565b50505050565b600080808060c0850135804211156108fb5760405162461bcd60e51b8152602060048201526013602482015272151c985b9cd858dd1a5bdb881d1bdbc81bdb19606a1b6044820152606401610841565b6006546000906001600160a01b03166371c54fc961091c60208a018a612714565b61092c60408b0160208c01612714565b61093c60608c0160408d01612acf565b6040518463ffffffff1660e01b815260040161095a93929190612aea565b602060405180830381865afa158015610977573d6000803e3d6000fd5b505050506040513d601f19601f8201168201806040525081019061099b9190612b13565b905060008190506000816001600160a01b0316638db791d26040518163ffffffff1660e01b8152600401602060405180830381865afa1580156109e2573d6000803e3d6000fd5b505050506040513d601f19601f82011682018060405250810190610a069190612b13565b90506000610a74836001600160a01b03166359c4f9056040518163ffffffff1660e01b8152600401602060405180830381865afa158015610a4b573d6000803e3d6000fd5b505050506040513d601f19601f82011682018060405250810190610a6f9190612b30565b6119d3565b90506000610ab9846001600160a01b03166355b812a86040518163ffffffff1660e01b8152600401602060405180830381865afa158015610a4b573d6000803e3d6000fd5b9050610ad08383838e606001358f60800135611c8e565b98506000610ae160208d018d612714565b610af160408e0160208f01612714565b8d6040016020810190610b049190612acf565b604080516001600160a01b039485166020820152939092169183019190915263ffffffff16606082015233608082015260a00160408051601f19818403018152908290526392f026ad60e01b825291506001600160a01b038616906392f026ad90610b779030908e908690600401612b53565b60408051808303816000875af1158015610b95573d6000803e3d6000fd5b505050506040513d601f19601f82011682018060405250810190610bb99190612b86565b9099509750610c1f610bd160c08e0160a08f01612714565b600780546001600160b01b0316906000610bea83612baa565b91906101000a8154816001600160b01b0302191690836001600160b01b031602179055506001600160b01b03169c508c611d52565b6040516316c1973960e01b815230600482015260009081906001600160a01b038816906316c197399060240160a060405180830381865afa158015610c68573d6000803e3d6000fd5b505050506040513d601f19601f82011682018060405250810190610c8c9190612be4565b50509250925050604051806101a001604052808e81526020018f60a0016020810190610cb89190612714565b6001600160a01b031681526020018f6000016020810190610cd99190612714565b6001600160a01b031681526020018f6020016020810190610cfa9190612714565b6001600160a01b031681526020018f6040016020810190610d1b9190612acf565b63ffffffff168152602001886001600160a01b031663ddca3f436040518163ffffffff1660e01b8152600401602060405180830381865afa158015610d64573d6000803e3d6000fd5b505050506040513d601f19601f82011682018060405250810190610d889190612c3c565b62ffffff1681526020018d6001600160801b03168152602001886001600160a01b03166359c4f9056040518163ffffffff1660e01b8152600401602060405180830381865afa158015610ddf573d6000803e3d6000fd5b505050506040513d601f19601f82011682018060405250810190610e039190612b30565b60020b8152602001886001600160a01b03166355b812a86040518163ffffffff1660e01b8152600401602060405180830381865afa158015610e49573d6000803e3d6000fd5b505050506040513d601f19601f82011682018060405250810190610e6d9190612b30565b60020b815260200160006001600160801b0316815260200160006001600160801b0316815260200183815260200182815250600860008f81526020019081526020016000206000820151816000015560208201518160010160006101000a8154816001600160a01b0302191690836001600160a01b0316021790555060408201518160020160006101000a8154816001600160a01b0302191690836001600160a01b0316021790555060608201518160030160006101000a8154816001600160a01b0302191690836001600160a01b0316021790555060808201518160030160146101000a81548163ffffffff021916908363ffffffff16021790555060a08201518160030160186101000a81548162ffffff021916908362ffffff16021790555060c08201518160040160006101000a8154816001600160801b0302191690836001600160801b0316021790555060e08201518160040160106101000a81548162ffffff021916908360020b62ffffff1602179055506101008201518160040160136101000a81548162ffffff021916908360020b62ffffff1602179055506101208201518160050160006101000a8154816001600160801b0302191690836001600160801b031602179055506101408201518160050160106101000a8154816001600160801b0302191690836001600160801b03160217905550610160820151816006015561018082015181600701559050505050505050505050509193509193565b6110ad838383604051806020016040528060008152506117d9565b505050565b6000808260006110c1826113b8565b90506110ce813384611db7565b6111095760405162461bcd60e51b815260206004820152600c60248201526b139bdd08185c1c1c9bdd995960a21b6044820152606401610841565b6000858152600860205260408082206004808201546006546002840154600385015495516371c54fc960e01b815294966001600160801b039093169592946001600160a01b03928316946371c54fc9946111799493841693811692600160a01b90910463ffffffff169101612aea565b602060405180830381865afa158015611196573d6000803e3d6000fd5b505050506040513d601f19601f820116820180604052508101906111ba9190612b13565b6040516390bc169360e01b81526001600160801b038416600482015290915081906001600160a01b038216906390bc16939060240160408051808303816000875af115801561120d573d6000803e3d6000fd5b505050506040513d601f19601f820116820180604052508101906112319190612b86565b6040516316c1973960e01b8152306004820152919950975060009081906001600160a01b038416906316c197399060240160a060405180830381865afa15801561127f573d6000803e3d6000fd5b505050506040513d601f19601f820116820180604052508101906112a39190612be4565b505092509250506112d58660060154836112bd9190612c61565b60048801546001600160801b0316600160801b611e1d565b6112df908b612c74565b6005870180546000906112fc9084906001600160801b0316612c74565b92506101000a8154816001600160801b0302191690836001600160801b031602179055506113338660070154826112bd9190612c61565b61133d908a612c74565b600587018054601090611361908490600160801b90046001600160801b0316612c74565b82546001600160801b039182166101009390930a9283029190920219909116179055506006860191909155600785015550505060040180546fffffffffffffffffffffffffffffffff191690555091939092509050565b600061051f82611894565b60006001600160a01b0382166113ef576040516322718ad960e21b815260006004820152602401610841565b506001600160a01b031660009081526003602052604090205490565b60008083600061141a826113b8565b9050611427813384611db7565b6114625760405162461bcd60e51b815260206004820152600c60248201526b139bdd08185c1c1c9bdd995960a21b6044820152606401610841565b6000868152600860205260408082206006546002820154600383015493516371c54fc960e01b81529294936001600160a01b03928316936371c54fc9936114c19381169290811691600160a01b90910463ffffffff1690600401612aea565b602060405180830381865afa1580156114de573d6000803e3d6000fd5b505050506040513d601f19601f820116820180604052508101906115029190612b13565b60058301546040516360d49d5360e01b81526001600160a01b038a811660048301526001600160801b038084166024840152600160801b90930490921660448201529192508291908216906360d49d539060640160408051808303816000875af1158015611574573d6000803e3d6000fd5b505050506040513d601f19601f820116820180604052508101906115989190612c93565b600060058601556001600160801b0391821698501695506115b889611ebf565b50505050509250929050565b606060018054610534906129f5565b60008080806115e485870187612cc6565b6006546040516371c54fc960e01b815294985092965090945092506000916001600160a01b03909116906371c54fc99061162690889088908890600401612aea565b602060405180830381865afa158015611643573d6000803e3d6000fd5b505050506040513d601f19601f820116820180604052508101906116679190612b13565b90506001600160a01b03811633146116c15760405162461bcd60e51b815260206004820152601760248201527f496e76616c69642063616c6c6261636b2063616c6c65720000000000000000006044820152606401610841565b8815611742576040516323b872dd60e01b81526001600160a01b038381166004830152336024830152604482018b90528616906323b872dd906064016020604051808303816000875af115801561171c573d6000803e3d6000fd5b505050506040513d601f19601f820116820180604052508101906117409190612d20565b505b87156117c3576040516323b872dd60e01b81526001600160a01b038381166004830152336024830152604482018a90528516906323b872dd906064016020604051808303816000875af115801561179d573d6000803e3d6000fd5b505050506040513d601f19601f820116820180604052508101906117c19190612d20565b505b505050505050505050565b6105eb338383611efa565b6117e484848461081b565b6108a53385858585611f99565b60606117fc82611894565b50600061181460408051602081019091526000815290565b90506000815111611834576040518060200160405280600081525061185f565b8061183e846120c4565b60405160200161184f929190612d3d565b6040516020818303038152906040525b9392505050565b6001600160a01b03918216600090815260056020908152604080832093909416825291909152205460ff1690565b6000818152600260205260408120546001600160a01b03168061051f57604051637e27328960e01b815260048101849052602401610841565b6110ad8383836001612157565b6000828152600260205260408120546001600160a01b03908116908316156119075761190781848661225d565b6001600160a01b0381161561194557611924600085600080612157565b6001600160a01b038116600090815260036020526040902080546000190190555b6001600160a01b03851615611974576001600160a01b0385166000908152600360205260409020805460010190555b60008481526002602052604080822080546001600160a01b0319166001600160a01b0389811691821790925591518793918516917fddf252ad1be2c89b69c2b068fc378daa952ba7f163c4a11628f55a4df523b3ef91a4949350505050565b60020b600060ff82901d80830118620d89e88111156119fd576119fd6345c3193d60e11b846122c1565b7001fffcb933bd6fad37aa2d162d1a5940016001821602600160801b186002821615611a39576ffff97272373d413259a46990580e213a0260801c5b6004821615611a58576ffff2e50f5f656932ef12357cf3c7fdcc0260801c5b6008821615611a77576fffe5caca7e10e4e61c3624eaa0941cd00260801c5b6010821615611a96576fffcb9843d60f6159c9db58835c9266440260801c5b6020821615611ab5576fff973b41fa98c081472e6896dfb254c00260801c5b6040821615611ad4576fff2ea16466c96a3843ec78b326b528610260801c5b6080821615611af3576ffe5dee046a99a2a811c461f1969c30530260801c5b610100821615611b13576ffcbe86c7900a88aedcffc83b479aa3a40260801c5b610200821615611b33576ff987a7253ac413176f2b074cf7815e540260801c5b610400821615611b53576ff3392b0822b70005940c7a398e4b70f30260801c5b610800821615611b73576fe7159475a2c29b7443b29c7fa6e889d90260801c5b611000821615611b93576fd097f3bdfd2022b8845ad8f792aa58250260801c5b612000821615611bb3576fa9f746462d870fdf8a65dc1f90e061e50260801c5b614000821615611bd3576f70d869a156d2a1b890bb3df62baf32f70260801c5b618000821615611bf3576f31be135f97d08fd981231505542fcfa60260801c5b62010000821615611c14576f09aa508b5b7a84e1c677de54f3e99bc90260801c5b62020000821615611c34576e5d6af8dedb81196699c329225ee6040260801c5b62040000821615611c53576d2216e584f5fa1ea926041bedfe980260801c5b62080000821615611c70576b048a170391f7dc42444e8fa20260801c5b6000841315611c7e57600019045b63ffffffff0160201c9392505050565b6000836001600160a01b0316856001600160a01b03161115611cae579293925b846001600160a01b0316866001600160a01b031611611cd957611cd28585856122d2565b9050611d49565b836001600160a01b0316866001600160a01b03161015611d3b576000611d008786866122d2565b90506000611d0f87898661233c565b9050806001600160801b0316826001600160801b031610611d305780611d32565b815b92505050611d49565b611d4685858461233c565b90505b95945050505050565b6001600160a01b038216611d7c57604051633250574960e11b815260006004820152602401610841565b6000611d8a838360006118da565b90506001600160a01b038116156110ad576040516339e3563760e11b815260006004820152602401610841565b60006001600160a01b03831615801590611e155750826001600160a01b0316846001600160a01b03161480611df15750611df18484611866565b80611e1557506000828152600460205260409020546001600160a01b038481169116145b949350505050565b60008383028160001985870982811083820303915050808411611e3f57600080fd5b80600003611e525750829004905061185f565b6000848688096000868103871696879004966002600389028118808a02820302808a02820302808a02820302808a02820302808a02820302808a02909103029181900381900460010186841190950394909402919094039290920491909117919091029150509392505050565b6000611ece60008360006118da565b90506001600160a01b0381166105eb57604051637e27328960e01b815260048101839052602401610841565b6001600160a01b038216611f2c57604051630b61174360e31b81526001600160a01b0383166004820152602401610841565b6001600160a01b03838116600081815260056020908152604080832094871680845294825291829020805460ff191686151590811790915591519182527f17307eab39ab6107e8899845ad3d59bd9653f200f220920489ca2b5937696c31910160405180910390a3505050565b6001600160a01b0383163b156120bd57604051630a85bd0160e11b81526001600160a01b0384169063150b7a0290611fdb908890889087908790600401612d6c565b6020604051808303816000875af1925050508015612016575060408051601f3d908101601f1916820190925261201391810190612d9f565b60015b61207f573d808015612044576040519150601f19603f3d011682016040523d82523d6000602084013e612049565b606091505b50805160000361207757604051633250574960e11b81526001600160a01b0385166004820152602401610841565b805181602001fd5b6001600160e01b03198116630a85bd0160e11b146120bb57604051633250574960e11b81526001600160a01b0385166004820152602401610841565b505b5050505050565b606060006120d183612372565b600101905060008167ffffffffffffffff8111156120f1576120f16128c9565b6040519080825280601f01601f19166020018201604052801561211b576020820181803683370190505b5090508181016020015b600019016f181899199a1a9b1b9c1cb0b131b232b360811b600a86061a8153600a850494508461212557509392505050565b808061216b57506001600160a01b03821615155b1561222d57600061217b84611894565b90506001600160a01b038316158015906121a75750826001600160a01b0316816001600160a01b031614155b80156121ba57506121b88184611866565b155b156121e35760405163a9fbf51f60e01b81526001600160a01b0384166004820152602401610841565b811561222b5783856001600160a01b0316826001600160a01b03167f8c5be1e5ebec7d5bd14f71427d1e84f3dd0314c0f7b2291e5b200ac8c7c3b92560405160405180910390a45b505b5050600090815260046020526040902080546001600160a01b0319166001600160a01b0392909216919091179055565b612268838383611db7565b6110ad576001600160a01b03831661229657604051637e27328960e01b815260048101829052602401610841565b60405163177e802f60e01b81526001600160a01b038316600482015260248101829052604401610841565b816000528060020b60045260246000fd5b6000826001600160a01b0316846001600160a01b031611156122f2579192915b6000612315856001600160a01b0316856001600160a01b0316600160601b611e1d565b9050611d4961233784836123298989612dbc565b6001600160a01b0316611e1d565b61244a565b6000826001600160a01b0316846001600160a01b0316111561235c579192915b611e1561233783600160601b6123298888612dbc565b60008072184f03e93ff9f4daa797ed6e38ed64bf6a1f0160401b83106123b15772184f03e93ff9f4daa797ed6e38ed64bf6a1f0160401b830492506040015b6d04ee2d6d415b85acef810000000083106123dd576d04ee2d6d415b85acef8100000000830492506020015b662386f26fc1000083106123fb57662386f26fc10000830492506010015b6305f5e1008310612413576305f5e100830492506008015b612710831061242757612710830492506004015b60648310612439576064830492506002015b600a831061051f5760010192915050565b806001600160801b038116811461246057600080fd5b919050565b6001600160e01b03198116811461247b57600080fd5b50565b60006020828403121561249057600080fd5b813561185f81612465565b60005b838110156124b657818101518382015260200161249e565b50506000910152565b600081518084526124d781602086016020860161249b565b601f01601f19169290920160200192915050565b60208152600061185f60208301846124bf565b60006020828403121561251057600080fd5b5035919050565b6001600160a01b038116811461247b57600080fd5b6000806040838503121561253f57600080fd5b823561254a81612517565b946020939093013593505050565b602080825282518282018190526000918401906040840190835b818110156126ad57835180518452602081015161259a60208601826001600160a01b03169052565b5060408101516125b560408601826001600160a01b03169052565b5060608101516125d060608601826001600160a01b03169052565b5060808101516125e8608086018263ffffffff169052565b5060a08101516125ff60a086018262ffffff169052565b5060c081015161261a60c08601826001600160801b03169052565b5060e081015161262f60e086018260020b9052565b5061010081015161264661010086018260020b9052565b506101208101516126636101208601826001600160801b03169052565b506101408101516126806101408601826001600160801b03169052565b5061016081810151908501526101809081015190840152602093909301926101a090920191600101612572565b509095945050505050565b6000806000606084860312156126cd57600080fd5b83356126d881612517565b925060208401356126e881612517565b929592945050506040919091013590565b600060e082840312801561270c57600080fd5b509092915050565b60006020828403121561272657600080fd5b813561185f81612517565b6000806040838503121561274457600080fd5b82359150602083013561275681612517565b809150509250929050565b8d81526001600160a01b038d811660208301528c811660408301528b16606082015263ffffffff8a16608082015262ffffff891660a08201526101a081016001600160801b03891660c08301526127bd60e083018960020b9052565b6127cd61010083018860020b9052565b6001600160801b0386166101208301526001600160801b03851661014083015261016082019390935261018001529b9a5050505050505050505050565b6000806000806060858703121561282057600080fd5b8435935060208501359250604085013567ffffffffffffffff81111561284557600080fd5b8501601f8101871361285657600080fd5b803567ffffffffffffffff81111561286d57600080fd5b87602082840101111561287f57600080fd5b949793965060200194505050565b801515811461247b57600080fd5b600080604083850312156128ae57600080fd5b82356128b981612517565b915060208301356127568161288d565b634e487b7160e01b600052604160045260246000fd5b600080600080608085870312156128f557600080fd5b843561290081612517565b9350602085013561291081612517565b925060408501359150606085013567ffffffffffffffff81111561293357600080fd5b8501601f8101871361294457600080fd5b803567ffffffffffffffff81111561295e5761295e6128c9565b604051601f8201601f19908116603f0116810167ffffffffffffffff8111828210171561298d5761298d6128c9565b6040528181528282016020018910156129a557600080fd5b8160208401602083013760006020838301015280935050505092959194509250565b600080604083850312156129da57600080fd5b82356129e581612517565b9150602083013561275681612517565b600181811c90821680612a0957607f821691505b602082108103612a2957634e487b7160e01b600052602260045260246000fd5b50919050565b634e487b7160e01b600052601160045260246000fd5b6001600160b01b03828116828216039081111561051f5761051f612a2f565b63ffffffff818116838216019081111561051f5761051f612a2f565b634e487b7160e01b600052603260045260246000fd5b600063ffffffff821663ffffffff8103612ab257612ab2612a2f565b60010192915050565b803563ffffffff8116811461246057600080fd5b600060208284031215612ae157600080fd5b61185f82612abb565b6001600160a01b03938416815291909216602082015263ffffffff909116604082015260600190565b600060208284031215612b2557600080fd5b815161185f81612517565b600060208284031215612b4257600080fd5b81518060020b811461185f57600080fd5b6001600160a01b03841681526001600160801b0383166020820152606060408201819052600090611d49908301846124bf565b60008060408385031215612b9957600080fd5b505080516020909101519092909150565b60006001600160b01b0382166002600160b01b03198101612ab257612ab2612a2f565b80516001600160801b038116811461246057600080fd5b600080600080600060a08688031215612bfc57600080fd5b612c0586612bcd565b6020870151604088015191965094509250612c2260608701612bcd565b9150612c3060808701612bcd565b90509295509295909350565b600060208284031215612c4e57600080fd5b815162ffffff8116811461185f57600080fd5b8181038181111561051f5761051f612a2f565b6001600160801b03818116838216019081111561051f5761051f612a2f565b60008060408385031215612ca657600080fd5b612caf83612bcd565b9150612cbd60208401612bcd565b90509250929050565b60008060008060808587031215612cdc57600080fd5b8435612ce781612517565b93506020850135612cf781612517565b9250612d0560408601612abb565b91506060850135612d1581612517565b939692955090935050565b600060208284031215612d3257600080fd5b815161185f8161288d565b60008351612d4f81846020880161249b565b835190830190612d6381836020880161249b565b01949350505050565b6001600160a01b0385811682528416602082015260408101839052608060608201819052600090611d46908301846124bf565b600060208284031215612db157600080fd5b815161185f81612465565b6001600160a01b03828116828216039081111561051f5761051f612a2f56fea264697066735822122046039afbee9fc701c529cd84adfe7eb01409a7646b55d102b9aba0da251083fc64736f6c634300081c0033",
  "linkReferences": {},
  "deployedLinkReferences": {}
}