{
  "_format": "hh-sol-artifact-1",
  "contractName": "PoolManager",
  "sourceName": "contracts/PoolManager.sol",
  "abi": [
    {
      "anonymous": false,
      "inputs": [
        {
          "indexed": false,
          "internalType": "address",
          "name": "token0",
          "type": "address"
        },
        {
          "indexed": false,
          "internalType": "address",
          "name": "token1",
          "type": "address"
        },
        {
          "indexed": false,
          "internalType": "uint32",
          "name": "index",
          "type": "uint32"
        },
        {
          "indexed": false,
          "internalType": "int24",
          "name": "tickLower",
          "type": "int24"
        },
        {
          "indexed": false,
          "internalType": "int24",
          "name": "tickUpper",
          "type": "int24"
        },
        {
          "indexed": false,
          "internalType": "uint24",
          "name": "fee",
          "type": "uint24"
        },
        {
          "indexed": false,
          "internalType": "address",
          "name": "pool",
          "type": "address"
        }
      ],
      "name": "PoolCreated",
      "type": "event"
    },
    {
      "inputs": [
        {
          "components": [
            {
              "internalType": "address",
              "name": "token0",
              "type": "address"
            },
            {
              "internalType": "address",
              "name": "token1",
              "type": "address"
            },
            {
              "internalType": "uint24",
              "name": "fee",
              "type": "uint24"
            },
            {
              "internalType": "int24",
              "name": "tickLower",
              "type": "int24"
            },
            {
              "internalType": "int24",
              "name": "tickUpper",
              "type": "int24"
            },
            {
              "internalType": "uint160",
              "name": "sqrtPriceX96",
              "type": "uint160"
            }
          ],
          "internalType": "struct IPoolManager.CreateAndInitializeParams",
          "name": "params",
          "type": "tuple"
        }
      ],
      "name": "createAndInitializePoolIfNecessary",
      "outputs": [
        {
          "internalType": "address",
          "name": "poolAddress",
          "type": "address"
        }
      ],
      "stateMutability": "payable",
      "type": "function"
    },
    {
      "inputs": [
        {
          "internalType": "address",
          "name": "tokenA",
          "type": "address"
        },
        {
          "internalType": "address",
          "name": "tokenB",
          "type": "address"
        },
        {
          "internalType": "int24",
          "name": "tickLower",
          "type": "int24"
        },
        {
          "internalType": "int24",
          "name": "tickUpper",
          "type": "int24"
        },
        {
          "internalType": "uint24",
          "name": "fee",
          "type": "uint24"
        }
      ],
      "name": "createPool",
      "outputs": [
        {
          "internalType": "address",
          "name": "pool",
          "type": "address"
        }
      ],
      "stateMutability": "nonpayable",
      "type": "function"
    },
    {
      "inputs": [],
      "name": "getAllPools",
      "outputs": [
        {
          "components": [
            {
              "internalType": "address",
              "name": "token0",
              "type": "address"
            },
            {
              "internalType": "address",
              "name": "token1",
              "type": "address"
            },
            {
              "internalType": "uint32",
              "name": "index",
              "type": "uint32"
            },
            {
              "internalType": "uint24",
              "name": "fee",
              "type": "uint24"
            },
            {
              "internalType": "uint8",
              "name": "feeProtocol",
              "type": "uint8"
            },
            {
              "internalType": "int24",
              "name": "tickLower",
              "type": "int24"
            },
            {
              "internalType": "int24",
              "name": "tickUpper",
              "type": "int24"
            },
            {
              "internalType": "int24",
              "name": "tick",
              "type": "int24"
            },
            {
              "internalType": "uint160",
              "name": "sqrtPriceX96",
              "type": "uint160"
            },
            {
              "internalType": "uint128",
              "name": "liquidity",
              "type": "uint128"
            }
          ],
          "internalType": "struct IPoolManager.PoolInfo[]",
          "name": "poolsInfo",
          "type": "tuple[]"
        }
      ],
      "stateMutability": "view",
      "type": "function"
    },
    {
      "inputs": [],
      "name": "getPairs",
      "outputs": [
        {
          "components": [
            {
              "internalType": "address",
              "name": "token0",
              "type": "address"
            },
            {
              "internalType": "address",
              "name": "token1",
              "type": "address"
            }
          ],
          "internalType": "struct IPoolManager.Pair[]",
          "name": "",
          "type": "tuple[]"
        }
      ],
      "stateMutability": "view",
      "type": "function"
    },
    {
      "inputs": [
        {
          "internalType": "address",
          "name": "tokenA",
          "type": "address"
        },
        {
          "internalType": "address",
          "name": "tokenB",
          "type": "address"
        },
        {
          "internalType": "uint32",
          "name": "index",
          "type": "uint32"
        }
      ],
      "name": "getPool",
      "outputs": [
        {
          "internalType": "address",
          "name": "",
          "type": "address"
        }
      ],
      "stateMutability": "view",
      "type": "function"
    },
    {
      "inputs": [
        {
          "internalType": "uint256",
          "name": "",
          "type": "uint256"
        }
      ],
      "name": "pairs",
      "outputs": [
        {
          "internalType": "address",
          "name": "token0",
          "type": "address"
        },
        {
          "internalType": "address",
          "name": "token1",
          "type": "address"
        }
      ],
      "stateMutability": "view",
      "type": "function"
    },
    {
      "inputs": [],
      "name": "parameters",
      "outputs": [
        {
          "internalType": "address",
          "name": "factory",
          "type": "address"
        },
        {
          "internalType": "address",
          "name": "tokenA",
          "type": "address"
        },
        {
          "internalType": "address",
          "name": "tokenB",
          "type": "address"
        },
        {
          "internalType": "int24",
          "name": "tickLower",
          "type": "int24"
        },
        {
          "internalType": "int24",
          "name": "tickUpper",
          "type": "int24"
        },
        {
          "internalType": "uint24",
          "name": "fee",
          "type": "uint24"
        }
      ],
      "stateMutability": "view",
      "type": "function"
    },
    {
      "inputs": [
        {
          "internalType": "address",
          "name": "",
          "type": "address"
        },
        {
          "internalType": "address",
          "name": "",
          "type": "address"
        },
        {
          "internalType": "uint256",
          "name": "",
          "type": "uint256"
        }
      ],
      "name": "pools",
      "outputs": [
        {
          "internalType": "address",
          "name": "",
          "type": "address"
        }
      ],
      "stateMutability": "view",
      "type": "function"
    }
  ],
  "bytecode": "0x6080604052348015600f57600080fd5b5061453a8061001f6000396000f3fe60806040526004361061007b5760003560e01c8063890357301161004e578063890357301461011f578063b91ac788146101b9578063bade3d39146101f9578063d88ff1f41461020c57600080fd5b80630c2d4e4e14610080578063169c4cef146100bd57806371c54fc9146100dd578063767eb5ef146100fd575b600080fd5b34801561008c57600080fd5b506100a061009b366004611454565b61022e565b6040516001600160a01b0390911681526020015b60405180910390f35b3480156100c957600080fd5b506100a06100d83660046114c5565b6106c9565b3480156100e957600080fd5b506100a06100f8366004611506565b61070e565b34801561010957600080fd5b50610112610830565b6040516100b4919061155a565b34801561012b57600080fd5b5060015460028054600354610171936001600160a01b03908116939281169290821691600160a01b8104820b91600160b81b8204900b90600160d01b900462ffffff1686565b604080516001600160a01b03978816815295871660208701529390951692840192909252600290810b60608401520b608082015262ffffff90911660a082015260c0016100b4565b3480156101c557600080fd5b506101d96101d43660046115b5565b6108a8565b604080516001600160a01b039384168152929091166020830152016100b4565b6100a06102073660046115ce565b6108e1565b34801561021857600080fd5b50610221610d5a565b6040516100b491906115e9565b6000846001600160a01b0316866001600160a01b03160361028c5760405162461bcd60e51b81526020600482015260136024820152724944454e544943414c5f41444452455353455360681b60448201526064015b60405180910390fd5b60008061029988886113de565b6001600160a01b038083166000908152602081815260408083209385168352928152828220805484518184028101840190955280855295975093955090939192919083018282801561031457602002820191906000526020600020905b81546001600160a01b031681526001909101906020018083116102f6575b5050505050905060005b81518110156104cb57600082828151811061033b5761033b61170b565b602002602001015190508860020b816001600160a01b03166359c4f9056040518163ffffffff1660e01b8152600401602060405180830381865afa158015610387573d6000803e3d6000fd5b505050506040513d601f19601f820116820180604052508101906103ab9190611721565b60020b14801561042157508760020b816001600160a01b03166355b812a86040518163ffffffff1660e01b8152600401602060405180830381865afa1580156103f8573d6000803e3d6000fd5b505050506040513d601f19601f8201168201806040525081019061041c9190611721565b60020b145b801561049757508662ffffff16816001600160a01b031663ddca3f436040518163ffffffff1660e01b8152600401602060405180830381865afa15801561046c573d6000803e3d6000fd5b505050506040513d601f19601f820116820180604052508101906104909190611745565b62ffffff16145b156104c2578282815181106104ae576104ae61170b565b6020026020010151955050505050506106c0565b5060010161031e565b506040805160c081018252308082526001600160a01b03868116602080850182905291871684860181905260028d810b60608701528c810b608087015262ffffff8c811660a0909701879052600180546001600160a01b031990811690971790558154909516909217909155600380546001600160b81b031916909117600160a01b848e16021765ffffffffffff60b81b1916600160b81b938c169390930262ffffff60d01b191692909217600160d01b909302929092179055905160009161059e91869186918c918c918c9101611762565b604051602081830303815290604052805190602001209050806040516105c39061140f565b8190604051809103906000f59050801580156105e3573d6000803e3d6000fd5b506001600160a01b038581166000818152602081815260408083208986168085529083528184208054600180820183559186529484902090940180549688166001600160a01b0319978816811790915584548716909455600280549096168655600380546001600160e81b0319169055885182519586529285015263ffffffff909116838201528c840b6060840152928b900b608083015262ffffff8a1660a083015260c082015290519196507fe026b1b60fa8f2d35cd0844432a7b513a5a112d8cfe2b30bc62c1c4b81373c75919081900360e00190a1505050505b95945050505050565b600060205282600052604060002060205281600052604060002081815481106106f157600080fd5b6000918252602090912001546001600160a01b0316925083915050565b6000826001600160a01b0316846001600160a01b0316036107675760405162461bcd60e51b81526020600482015260136024820152724944454e544943414c5f41444452455353455360681b6044820152606401610283565b6001600160a01b0384161580159061078757506001600160a01b03831615155b6107c25760405162461bcd60e51b815260206004820152600c60248201526b5a45524f5f4144445245535360a01b6044820152606401610283565b6000806107cf86866113de565b6001600160a01b0380831660009081526020818152604080832093851683529290522080549294509092509063ffffffff86169081106108115761081161170b565b6000918252602090912001546001600160a01b03169695505050505050565b60606004805480602002602001604051908101604052809291908181526020016000905b8282101561089f576000848152602090819020604080518082019091526002850290910180546001600160a01b03908116835260019182015416828401529083529092019101610854565b50505050905090565b600481815481106108b857600080fd5b6000918252602090912060029091020180546001909101546001600160a01b0391821692501682565b60006108f3604083016020840161179b565b6001600160a01b0316610909602084018461179b565b6001600160a01b03161061095f5760405162461bcd60e51b815260206004820152601f60248201527f746f6b656e30206d757374206265206c657373207468616e20746f6b656e31006044820152606401610283565b30630c2d4e4e610972602085018561179b565b610982604086016020870161179b565b61099260808701606088016117b8565b6109a260a08801608089016117b8565b6109b26060890160408a016117d5565b6040518663ffffffff1660e01b81526004016109d2959493929190611762565b6020604051808303816000875af11580156109f1573d6000803e3d6000fd5b505050506040513d601f19601f82011682018060405250810190610a1591906117f2565b905060008190506000806000836001600160a01b0316630dfe16816040518163ffffffff1660e01b8152600401602060405180830381865afa158015610a5f573d6000803e3d6000fd5b505050506040513d601f19601f82011682018060405250810190610a8391906117f2565b6001600160a01b03166001600160a01b031681526020019081526020016000206000836001600160a01b031663d21220a76040518163ffffffff1660e01b8152600401602060405180830381865afa158015610ae3573d6000803e3d6000fd5b505050506040513d601f19601f82011682018060405250810190610b0791906117f2565b6001600160a01b03166001600160a01b03168152602001908152602001600020805490509050816001600160a01b0316638db791d26040518163ffffffff1660e01b8152600401602060405180830381865afa158015610b6b573d6000803e3d6000fd5b505050506040513d601f19601f82011682018060405250810190610b8f91906117f2565b6001600160a01b0316600003610d53576001600160a01b03821663f637731d610bbe60c0870160a0880161179b565b6040516001600160e01b031960e084901b1681526001600160a01b039091166004820152602401600060405180830381600087803b158015610bff57600080fd5b505af1158015610c13573d6000803e3d6000fd5b5050505080600103610d535760046040518060400160405280846001600160a01b0316630dfe16816040518163ffffffff1660e01b8152600401602060405180830381865afa158015610c6a573d6000803e3d6000fd5b505050506040513d601f19601f82011682018060405250810190610c8e91906117f2565b6001600160a01b03168152602001846001600160a01b031663d21220a76040518163ffffffff1660e01b8152600401602060405180830381865afa158015610cda573d6000803e3d6000fd5b505050506040513d601f19601f82011682018060405250810190610cfe91906117f2565b6001600160a01b039081169091528254600180820185556000948552602094859020845160029093020180546001600160a01b0319908116938516939093178155939094015192909301805490931691161790555b5050919050565b60606000805b60045463ffffffff82161015610e1e5760008060048363ffffffff1681548110610d8c57610d8c61170b565b600091825260208083206002909202909101546001600160a01b0316835282019290925260400181206004805491929163ffffffff8516908110610dd257610dd261170b565b60009182526020808320600160029093020191909101546001600160a01b03168352820192909252604001902054610e0a9083611825565b915080610e1681611847565b915050610d60565b508063ffffffff1667ffffffffffffffff811115610e3e57610e3e61186c565b604051908082528060200260200182016040528015610ebd57816020015b604080516101408101825260008082526020808301829052928201819052606082018190526080820181905260a0820181905260c0820181905260e0820181905261010082018190526101208201528252600019909201910181610e5c5790505b5091506000805b60045463ffffffff821610156113d857600080600060048463ffffffff1681548110610ef257610ef261170b565b600091825260208083206002909202909101546001600160a01b0316835282019290925260400181206004805491929163ffffffff8616908110610f3857610f3861170b565b60009182526020808320600160029093020191909101546001600160a01b03168352828101939093526040918201902080548251818502810185019093528083529192909190830182828015610fb757602002820191906000526020600020905b81546001600160a01b03168152600190910190602001808311610f99575b5050505050905060005b81518163ffffffff1610156113c3576000828263ffffffff1681518110610fea57610fea61170b565b60200260200101519050604051806101400160405280826001600160a01b0316630dfe16816040518163ffffffff1660e01b8152600401602060405180830381865afa15801561103e573d6000803e3d6000fd5b505050506040513d601f19601f8201168201806040525081019061106291906117f2565b6001600160a01b03168152602001826001600160a01b031663d21220a76040518163ffffffff1660e01b8152600401602060405180830381865afa1580156110ae573d6000803e3d6000fd5b505050506040513d601f19601f820116820180604052508101906110d291906117f2565b6001600160a01b031681526020018363ffffffff168152602001826001600160a01b031663ddca3f436040518163ffffffff1660e01b8152600401602060405180830381865afa15801561112a573d6000803e3d6000fd5b505050506040513d601f19601f8201168201806040525081019061114e9190611745565b62ffffff168152602001600060ff168152602001826001600160a01b03166359c4f9056040518163ffffffff1660e01b8152600401602060405180830381865afa1580156111a0573d6000803e3d6000fd5b505050506040513d601f19601f820116820180604052508101906111c49190611721565b60020b8152602001826001600160a01b03166355b812a86040518163ffffffff1660e01b8152600401602060405180830381865afa15801561120a573d6000803e3d6000fd5b505050506040513d601f19601f8201168201806040525081019061122e9190611721565b60020b8152602001826001600160a01b0316633eaf5d9f6040518163ffffffff1660e01b8152600401602060405180830381865afa158015611274573d6000803e3d6000fd5b505050506040513d601f19601f820116820180604052508101906112989190611721565b60020b8152602001826001600160a01b0316638db791d26040518163ffffffff1660e01b8152600401602060405180830381865afa1580156112de573d6000803e3d6000fd5b505050506040513d601f19601f8201168201806040525081019061130291906117f2565b6001600160a01b03168152602001826001600160a01b0316631a6865026040518163ffffffff1660e01b8152600401602060405180830381865afa15801561134e573d6000803e3d6000fd5b505050506040513d601f19601f820116820180604052508101906113729190611882565b6001600160801b0316815250878663ffffffff16815181106113965761139661170b565b602002602001018190525084806113ac90611847565b9550505080806113bb90611847565b915050610fc1565b505080806113d090611847565b915050610ec4565b50505090565b600080826001600160a01b0316846001600160a01b031610611401578284611404565b83835b915091509250929050565b612c59806118ac83390190565b6001600160a01b038116811461143157600080fd5b50565b8060020b811461143157600080fd5b62ffffff8116811461143157600080fd5b600080600080600060a0868803121561146c57600080fd5b85356114778161141c565b945060208601356114878161141c565b9350604086013561149781611434565b925060608601356114a781611434565b915060808601356114b781611443565b809150509295509295909350565b6000806000606084860312156114da57600080fd5b83356114e58161141c565b925060208401356114f58161141c565b929592945050506040919091013590565b60008060006060848603121561151b57600080fd5b83356115268161141c565b925060208401356115368161141c565b9150604084013563ffffffff8116811461154f57600080fd5b809150509250925092565b602080825282518282018190526000918401906040840190835b818110156115aa57835180516001600160a01b039081168552602091820151168185015290930192604090920191600101611574565b509095945050505050565b6000602082840312156115c757600080fd5b5035919050565b600060c08284031280156115e157600080fd5b509092915050565b602080825282518282018190526000918401906040840190835b818110156115aa57835180516001600160a01b03168452602081015161163460208601826001600160a01b03169052565b50604081015161164c604086018263ffffffff169052565b506060810151611663606086018262ffffff169052565b506080810151611678608086018260ff169052565b5060a081015161168d60a086018260020b9052565b5060c08101516116a260c086018260020b9052565b5060e08101516116b760e086018260020b9052565b506101008101516116d46101008601826001600160a01b03169052565b5061012081015190506116f36101208501826001600160801b03169052565b50602093909301926101409290920191600101611603565b634e487b7160e01b600052603260045260246000fd5b60006020828403121561173357600080fd5b815161173e81611434565b9392505050565b60006020828403121561175757600080fd5b815161173e81611443565b6001600160a01b039586168152939094166020840152600291820b6040840152900b606082015262ffffff909116608082015260a00190565b6000602082840312156117ad57600080fd5b813561173e8161141c565b6000602082840312156117ca57600080fd5b813561173e81611434565b6000602082840312156117e757600080fd5b813561173e81611443565b60006020828403121561180457600080fd5b815161173e8161141c565b634e487b7160e01b600052601160045260246000fd5b63ffffffff81811683821601908111156118415761184161180f565b92915050565b600063ffffffff821663ffffffff81036118635761186361180f565b60010192915050565b634e487b7160e01b600052604160045260246000fd5b60006020828403121561189457600080fd5b81516001600160801b038116811461173e57600080fdfe61014060405234801561001157600080fd5b50336001600160a01b031663890357306040518163ffffffff1660e01b815260040160c060405180830381865afa158015610050573d6000803e3d6000fd5b505050506040513d601f19601f8201168201806040525081019061007491906100d5565b62ffffff1660e052600290810b610120520b610100526001600160a01b0390811660c05290811660a05216608052610155565b80516001600160a01b03811681146100be57600080fd5b919050565b8051600281900b81146100be57600080fd5b60008060008060008060c087890312156100ee57600080fd5b6100f7876100a7565b9550610105602088016100a7565b9450610113604088016100a7565b9350610121606088016100c3565b925061012f608088016100c3565b915060a087015162ffffff8116811461014757600080fd5b809150509295509295509295565b60805160a05160c05160e0516101005161012051612a5a6101ff6000396000818161029e015281816105ed015281816111ac0152611d5e01526000818161034a015281816105c0015281816111740152611d9601526000818161042b0152610685015260008181610404015281816108f801528181610c380152611d1401526000818161012b015281816109e801528181610bb10152611afb015260006103dd0152612a5a6000f3fe608060405234801561001057600080fd5b50600436106101215760003560e01c806359c4f905116100ad578063c45a015511610071578063c45a0155146103d8578063d21220a7146103ff578063ddca3f4314610426578063f305839914610461578063f637731d1461046a57600080fd5b806359c4f9051461034557806360d49d531461036c5780638db791d21461039f57806390bc1693146103b257806392f026ad146103c557600080fd5b80631a686502116100f45780631a686502146102305780633eaf5d9f1461025b578063461413191461028257806355b812a81461029957806355f57510146102c057600080fd5b80630dfe168114610126578063128acb081461016a578063169c4cef1461019257806316c19739146101a5575b600080fd5b61014d7f000000000000000000000000000000000000000000000000000000000000000081565b6040516001600160a01b0390911681526020015b60405180910390f35b61017d610178366004612612565b61047f565b60408051928352602083019190915201610161565b61014d6101a0366004612697565b610a97565b6101fa6101b33660046126d8565b6001600160a01b031660009081526005602052604090208054600282015460038301546001909301546001600160801b0380841695929493600160801b9004811692911690565b604080516001600160801b039687168152602081019590955284019290925283166060830152909116608082015260a001610161565b600154610243906001600160801b031681565b6040516001600160801b039091168152602001610161565b60005461026f90600160a01b900460020b81565b60405160029190910b8152602001610161565b61028b60035481565b604051908152602001610161565b61026f7f000000000000000000000000000000000000000000000000000000000000000081565b61030c6102ce3660046126d8565b60056020526000908152604090208054600182015460028301546003909301546001600160801b0380841694600160801b9094048116939216919085565b604080516001600160801b039687168152948616602086015292909416918301919091526060820152608081019190915260a001610161565b61026f7f000000000000000000000000000000000000000000000000000000000000000081565b61037f61037a36600461270c565b610adc565b604080516001600160801b03938416815292909116602083015201610161565b60005461014d906001600160a01b031681565b61017d6103c0366004612751565b610cc5565b61017d6103d336600461276c565b610ee2565b61014d7f000000000000000000000000000000000000000000000000000000000000000081565b61014d7f000000000000000000000000000000000000000000000000000000000000000081565b61044d7f000000000000000000000000000000000000000000000000000000000000000081565b60405162ffffff9091168152602001610161565b61028b60025481565b61047d6104783660046126d8565b611101565b005b600080856000036104bc5760405162461bcd60e51b8152602060048201526002602482015261415360f01b60448201526064015b60405180910390fd5b86610500576000546001600160a01b039081169086161180156104fb575073fffd8963efd1fc6a506488495d951d5263988d266001600160a01b038616105b61052b565b6000546001600160a01b0390811690861610801561052b57506401000276a36001600160a01b038616115b61055d5760405162461bcd60e51b815260206004820152600360248201526214d41360ea1b60448201526064016104b3565b6040805160e08101825287815260006020820181905280546001600160a01b0316928201929092528188139190606081018a61059b5760035461059f565b6002545b815260200160008152602001600081526020016000815250905060006105e47f000000000000000000000000000000000000000000000000000000000000000061127a565b905060006106117f000000000000000000000000000000000000000000000000000000000000000061127a565b905060008b6106205781610622565b825b6000549091506106a9906001600160a01b03168d610654578b6001600160a01b0316836001600160a01b03161161066a565b8b6001600160a01b0316836001600160a01b0316105b6106745782610676565b8b5b6001546001600160801b03168e7f0000000000000000000000000000000000000000000000000000000000000000611535565b60c088015260a087015260808601526001600160a01b031660408501819052600080546001600160a01b031916821790556106e390611750565b6000805462ffffff92909216600160a01b0262ffffff60a01b1990921691909117905560c08401516001546107279190600160801b906001600160801b03166119e2565b8460600181815161073891906127e5565b9052508b1561074e576060840151600255610757565b60608401516003555b84156107b2576107798460c00151856080015161077491906127e5565b611a85565b845185906107889083906127f8565b90525060a08401516107a89061079d90611a85565b602086015190611a9b565b60208501526107fe565b6107bf8460a00151611a85565b845185906107ce90839061281f565b90525060c084015160808501516107f8916107ed9161077491906127e5565b602086015190611ac1565b60208501525b8415158c15151461081f576020840151845161081a908d6127f8565b610831565b835161082b908c6127f8565b84602001515b90975095508b1561092c576000610846611ae1565b604051637d241f3960e11b8152909150339063fa483e7290610872908b908b908f908f90600401612870565b600060405180830381600087803b15801561088c57600080fd5b505af11580156108a0573d6000803e3d6000fd5b505050506108ac611ae1565b6108b6828a611bdf565b11156108ea5760405162461bcd60e51b815260206004820152600360248201526249494160e81b60448201526064016104b3565b6000871215610926576109267f00000000000000000000000000000000000000000000000000000000000000008f6109218a61289a565b611bfa565b50610a13565b6000610936611cfa565b604051637d241f3960e11b8152909150339063fa483e7290610962908b908b908f908f90600401612870565b600060405180830381600087803b15801561097c57600080fd5b505af1158015610990573d6000803e3d6000fd5b5050505061099c611cfa565b6109a68289611bdf565b11156109da5760405162461bcd60e51b815260206004820152600360248201526249494160e81b60448201526064016104b3565b6000881215610a1157610a117f00000000000000000000000000000000000000000000000000000000000000008f6109218b61289a565b505b600054600154604080518a8152602081018a90526001600160a01b03808516828401526001600160801b039093166060820152600160a01b90930460020b608084015251908f169133917fc42079f94a6350d7e6235f29174924f928cc2ac818eb64fed8004e115fbcca679181900360a00190a35050505050965096945050505050565b60046020528260005260406000206020528160005260406000208181548110610abf57600080fd5b6000918252602090912001546001600160a01b0316925083915050565b33600090815260056020526040812080548291906001600160801b03600160801b909104811690861611610b105784610b23565b8054600160801b90046001600160801b03165b60018201549093506001600160801b0390811690851611610b445783610b53565b60018101546001600160801b03165b91506001600160801b03831615610be057805483908290601090610b88908490600160801b90046001600160801b03166128b6565b92506101000a8154816001600160801b0302191690836001600160801b03160217905550610be07f000000000000000000000000000000000000000000000000000000000000000087856001600160801b0316611bfa565b6001600160801b03821615610c6757600181018054839190600090610c0f9084906001600160801b03166128b6565b92506101000a8154816001600160801b0302191690836001600160801b03160217905550610c677f000000000000000000000000000000000000000000000000000000000000000087846001600160801b0316611bfa565b604080516001600160a01b03881681526001600160801b038581166020830152841681830152905133917f38c069c2e9bc192f8cf4f1b85be791ccc0d04bb12c4ca71a3fbfe96ea0932dd5919081900360600190a250935093915050565b6000806000836001600160801b031611610d2c5760405162461bcd60e51b815260206004820152602260248201527f4275726e20616d6f756e74206d7573742062652067726561746572207468616e604482015261020360f41b60648201526084016104b3565b336000908152600560205260409020546001600160801b039081169084161115610d985760405162461bcd60e51b815260206004820152601d60248201527f4275726e20616d6f756e742065786365656473206c697175696469747900000060448201526064016104b3565b600080610dcc6040518060400160405280336001600160a01b0316815260200187610dc2906128d5565b600f0b9052611d46565b9150915081610dda9061289a565b9350610de58161289a565b92506000841180610df65750600083115b15610e8f5733600090815260056020526040902054610e26908590600160801b90046001600160801b0316612904565b33600090815260056020526040902060010154610e4d9085906001600160801b0316612904565b3360009081526005602052604090206001810180546001600160801b0319166001600160801b0393841617905580548216600160801b93909216929092021790555b604080516001600160801b03871681526020810186905290810184905233907fd4885a46e0c2f00ffdf2adb97a3909fd129dc1acccead462f7e29e6f18e54ec19060600160405180910390a25050915091565b6000806000856001600160801b031611610f495760405162461bcd60e51b815260206004820152602260248201527f4d696e7420616d6f756e74206d7573742062652067726561746572207468616e604482015261020360f41b60648201526084016104b3565b600080610f7560405180604001604052808a6001600160a01b0316815260200189600f0b815250611d46565b90945092508391508290506000808315610f9457610f91611ae1565b91505b8415610fa557610fa2611cfa565b90505b604051639f382e9b60e01b81523390639f382e9b90610fce90899089908d908d90600401612870565b600060405180830381600087803b158015610fe857600080fd5b505af1158015610ffc573d6000803e3d6000fd5b50505050600086111561104e57611011611ae1565b61101b8388611bdf565b111561104e5760405162461bcd60e51b815260206004820152600260248201526104d360f41b60448201526064016104b3565b84156110995761105c611cfa565b6110668287611bdf565b11156110995760405162461bcd60e51b81526020600482015260026024820152614d3160f01b60448201526064016104b3565b604080513381526001600160801b038b166020820152908101879052606081018690526001600160a01b038b16907f011d4be6213866bff035f68967364cf69c5c01ff5bc23ff0a275f08a04381e6a9060800160405180910390a25050505094509492505050565b6000546001600160a01b0316156111485760405162461bcd60e51b815260206004820152600b60248201526a125392551250531256915160aa1b60448201526064016104b3565b61115181611750565b6000805462ffffff60a01b1916600160a01b62ffffff93909316830217908190557f0000000000000000000000000000000000000000000000000000000000000000600290810b92909104900b128015906111dc57506000547f0000000000000000000000000000000000000000000000000000000000000000600290810b600160a01b909204900b125b6112585760405162461bcd60e51b815260206004820152604160248201527f7371727450726963655839362073686f756c642062652077697468696e20746860448201527f652072616e6765206f66205b7469636b4c6f7765722c207469636b55707065726064820152602960f81b608482015260a4016104b3565b600080546001600160a01b0319166001600160a01b0392909216919091179055565b60020b600060ff82901d80830118620d89e88111156112a4576112a46345c3193d60e11b84611f85565b7001fffcb933bd6fad37aa2d162d1a5940016001821602600160801b1860028216156112e0576ffff97272373d413259a46990580e213a0260801c5b60048216156112ff576ffff2e50f5f656932ef12357cf3c7fdcc0260801c5b600882161561131e576fffe5caca7e10e4e61c3624eaa0941cd00260801c5b601082161561133d576fffcb9843d60f6159c9db58835c9266440260801c5b602082161561135c576fff973b41fa98c081472e6896dfb254c00260801c5b604082161561137b576fff2ea16466c96a3843ec78b326b528610260801c5b608082161561139a576ffe5dee046a99a2a811c461f1969c30530260801c5b6101008216156113ba576ffcbe86c7900a88aedcffc83b479aa3a40260801c5b6102008216156113da576ff987a7253ac413176f2b074cf7815e540260801c5b6104008216156113fa576ff3392b0822b70005940c7a398e4b70f30260801c5b61080082161561141a576fe7159475a2c29b7443b29c7fa6e889d90260801c5b61100082161561143a576fd097f3bdfd2022b8845ad8f792aa58250260801c5b61200082161561145a576fa9f746462d870fdf8a65dc1f90e061e50260801c5b61400082161561147a576f70d869a156d2a1b890bb3df62baf32f70260801c5b61800082161561149a576f31be135f97d08fd981231505542fcfa60260801c5b620100008216156114bb576f09aa508b5b7a84e1c677de54f3e99bc90260801c5b620200008216156114db576e5d6af8dedb81196699c329225ee6040260801c5b620400008216156114fa576d2216e584f5fa1ea926041bedfe980260801c5b62080000821615611517576b048a170391f7dc42444e8fa20260801c5b600084131561152557600019045b63ffffffff0160201c9392505050565b60008080806001600160a01b03808916908a1610158187128015906115c1576000611575896115678a620f4240612923565b62ffffff16620f42406119e2565b90508261158e576115898c8c8c6001611f96565b61159b565b61159b8b8d8c600161201f565b95508581106115ac578a96506115bb565b6115b88c8b83866120e6565b96505b50611615565b816115d8576115d38b8b8b600061201f565b6115e5565b6115e58a8c8b6000611f96565b9350836115f18961289a565b106115fe57899550611615565b6116128b8a61160c8b61289a565b85612132565b95505b6001600160a01b038a8116908716148215611678578080156116345750815b61164a57611645878d8c600161201f565b61164c565b855b9550808015611659575081155b61166f5761166a878d8c6000611f96565b611671565b845b94506116c2565b8080156116825750815b611698576116938c888c6001611f96565b61169a565b855b95508080156116a7575081155b6116bd576116b88c888c600061201f565b6116bf565b845b94505b811580156116d757506116d48961289a565b85115b156116e8576116e58961289a565b94505b81801561170757508a6001600160a01b0316876001600160a01b031614155b1561171d57611716868a61293e565b9350611741565b61173e8662ffffff8a166117348b620f4240612923565b62ffffff1661217e565b93505b50505095509550955095915050565b600073fffd8963efd1fc6a506488495d951d51639616826401000276a21983016001600160a01b03161115611790576117906318521d4960e21b836121b0565b640100000000600160c01b03602083901b168060006117ae826121c7565b60ff169050608081106117c957607f810383901c91506117d3565b80607f0383901b91505b908002607f81811c60ff83811c9190911c800280831c81831c1c800280841c81841c1c800280851c81851c1c800280861c81861c1c800280871c81871c1c800280881c81881c1c800280891c81891c1c8002808a1c818a1c1c8002808b1c818b1c1c8002808c1c818c1c1c8002808d1c818d1c1c8002808e1c9c81901c9c909c1c80029c8d901c9e9d607f198f0160401b60c09190911c678000000000000000161760c19b909b1c674000000000000000169a909a1760c29990991c672000000000000000169890981760c39790971c671000000000000000169690961760c49590951c670800000000000000169490941760c59390931c670400000000000000169290921760c69190911c670200000000000000161760c79190911c670100000000000000161760c89190911c6680000000000000161760c99190911c6640000000000000161760ca9190911c6620000000000000161760cb9190911c6610000000000000161760cc9190911c6608000000000000161760cd9190911c66040000000000001617693627a301d71055774c8581026f028f6481ab7f045a5af012a19d003aa9198101608090811d906fdb2df09e81959a81455e260799a0632f8301901d600281810b9083900b146119d357886001600160a01b03166119b88261127a565b6001600160a01b031611156119cd57816119d5565b806119d5565b815b9998505050505050505050565b60008383028160001985870982811083820303915050808411611a0457600080fd5b80600003611a1757508290049050611a7e565b6000848688096000868103871696879004966002600389028118808a02820302808a02820302808a02820302808a02820302808a02820302808a02909103029181900381900460010186841190950394909402919094039290920491909117919091029150505b9392505050565b6000600160ff1b8210611a9757600080fd5b5090565b60008082121583611aac84826127f8565b925082131514611abb57600080fd5b92915050565b60008082121583611ad2848261281f565b925082121514611abb57600080fd5b604051306024820152600090819081906001600160a01b037f000000000000000000000000000000000000000000000000000000000000000016906370a0823160e01b906044015b60408051601f198184030181529181526020820180516001600160e01b03166001600160e01b0319909416939093179092529051611b679190612951565b600060405180830381855afa9150503d8060008114611ba2576040519150601f19603f3d011682016040523d82523d6000602084013e611ba7565b606091505b5091509150818015611bbb57506020815110155b611bc457600080fd5b80806020019051810190611bd89190612980565b9250505090565b600082611bec83826127e5565b9150811015611abb57600080fd5b604080516001600160a01b038481166024830152604480830185905283518084039091018152606490920183526020820180516001600160e01b031663a9059cbb60e01b1790529151600092839290871691611c569190612951565b6000604051808303816000865af19150503d8060008114611c93576040519150601f19603f3d011682016040523d82523d6000602084013e611c98565b606091505b5091509150818015611cc2575080511580611cc2575080806020019051810190611cc29190612999565b611cf35760405162461bcd60e51b81526020600482015260026024820152612a2360f11b60448201526064016104b3565b5050505050565b604051306024820152600090819081906001600160a01b037f000000000000000000000000000000000000000000000000000000000000000016906370a0823160e01b90604401611b29565b600080548190611d8c906001600160a01b0316611d827f000000000000000000000000000000000000000000000000000000000000000061127a565b8560200151612254565b9150611dd3611dba7f000000000000000000000000000000000000000000000000000000000000000061127a565b60005460208601516001600160a01b0390911690612296565b83516001600160a01b0316600090815260056020526040812060028082015490549394509092611e1b91611e069161293e565b83546001600160801b0316600160801b6119e2565b90506000611e498360030154600354611e34919061293e565b84546001600160801b0316600160801b6119e2565b6002805490850155600380549085015590506001600160801b038216151580611e7b57506000816001600160801b0316115b15611f1357825482908490601090611ea4908490600160801b90046001600160801b0316612904565b92506101000a8154816001600160801b0302191690836001600160801b03160217905550808360010160008282829054906101000a90046001600160801b0316611eee9190612904565b92506101000a8154816001600160801b0302191690836001600160801b031602179055505b6001546020870151611f2e916001600160801b0316906122ca565b600180546001600160801b0319166001600160801b0392831617905583546020880151611f5f9291909116906122ca565b83546001600160801b0319166001600160801b0391909116179092555091939092509050565b816000528060020b60045260246000fd5b6000836001600160a01b0316856001600160a01b03161115611fb6579293925b81611fea57611fe56001600160801b038416611fd287876129b6565b6001600160a01b0316600160601b6119e2565b612014565b6120146001600160801b03841661200187876129b6565b6001600160a01b0316600160601b61217e565b90505b949350505050565b6000836001600160a01b0316856001600160a01b0316111561203f579293925b600160601b600160e01b03606084901b16600061205c87876129b6565b6001600160a01b031690506000876001600160a01b03161161207d57600080fd5b836120af57866001600160a01b03166120a08383896001600160a01b03166119e2565b6120aa91906129eb565b6120db565b6120db6120c68383896001600160a01b031661217e565b886001600160a01b0316808204910615150190565b979650505050505050565b600080856001600160a01b0316116120fd57600080fd5b6000846001600160801b03161161211357600080fd5b8161212557611fe5858585600161238a565b6120148585856001612471565b600080856001600160a01b03161161214957600080fd5b6000846001600160801b03161161215f57600080fd5b8161217157611fe58585856000612471565b612014858585600061238a565b600061218b8484846119e2565b9050818061219b5761219b6129d5565b83850915611a7e5760010180611a7e57600080fd5b816000526001600160a01b03811660045260246000fd5b60008082116121d557600080fd5b507f0706060506020500060203020504000106050205030304010505030400000000601f6f8421084210842108cc6318c6db6d54be6001600160801b03841160071b84811c67ffffffffffffffff1060061b1784811c63ffffffff1060051b1784811c61ffff1060041b1784811c60ff1060031b1793841c1c161a1790565b60008082600f0b1261227557612270610774858585600161201f565b612017565b61228d6107748585612286866128d5565b600061201f565b6120179061289a565b60008082600f0b126122b2576122706107748585856001611f96565b61228d61077485856122c3866128d5565b6000611f96565b60008082600f0b1215612337576001600160801b0383166122ea836128d5565b6122f490856128b6565b9150816001600160801b0316106123325760405162461bcd60e51b81526020600482015260026024820152614c5360f01b60448201526064016104b3565b611abb565b6001600160801b03831661234b8385612904565b9150816001600160801b03161015611abb5760405162461bcd60e51b81526020600482015260026024820152614c4160f01b60448201526064016104b3565b600081156123fc5760006001600160a01b038411156123c0576123bb84600160601b876001600160801b03166119e2565b6123d7565b6123d76001600160801b038616606086901b6129eb565b90506123f46123ef6001600160a01b03881683611bdf565b612588565b915050612017565b60006001600160a01b0384111561242a5761242584600160601b876001600160801b031661217e565b612447565b612447606085901b6001600160801b038716808204910615150190565b905080866001600160a01b03161161245e57600080fd5b6123f4816001600160a01b03881661293e565b600082600003612482575083612017565b600160601b600160e01b03606085901b16821561252b5760006001600160a01b038716856124b08282612a0d565b92506124bc90836129eb565b036124f65760006124cd82846127e5565b90508281106124f4576124ea83896001600160a01b03168361217e565b9350505050612017565b505b61252282612517876125116001600160a01b038c16846129eb565b90611bdf565b808204910615150190565b92505050612017565b60006001600160a01b038716856125428282612a0d565b925061254e90836129eb565b14801561255a57508082115b61256357600080fd5b600061256f828461293e565b90506124ea6123ef848a6001600160a01b03168461217e565b806001600160a01b038116811461259e57600080fd5b919050565b6001600160a01b03811681146125b857600080fd5b50565b80151581146125b857600080fd5b60008083601f8401126125db57600080fd5b50813567ffffffffffffffff8111156125f357600080fd5b60208301915083602082850101111561260b57600080fd5b9250929050565b60008060008060008060a0878903121561262b57600080fd5b8635612636816125a3565b95506020870135612646816125bb565b945060408701359350606087013561265d816125a3565b9250608087013567ffffffffffffffff81111561267957600080fd5b61268589828a016125c9565b979a9699509497509295939492505050565b6000806000606084860312156126ac57600080fd5b83356126b7816125a3565b925060208401356126c7816125a3565b929592945050506040919091013590565b6000602082840312156126ea57600080fd5b8135611a7e816125a3565b80356001600160801b038116811461259e57600080fd5b60008060006060848603121561272157600080fd5b833561272c816125a3565b925061273a602085016126f5565b9150612748604085016126f5565b90509250925092565b60006020828403121561276357600080fd5b611a7e826126f5565b6000806000806060858703121561278257600080fd5b843561278d816125a3565b935061279b602086016126f5565b9250604085013567ffffffffffffffff8111156127b757600080fd5b6127c3878288016125c9565b95989497509550505050565b634e487b7160e01b600052601160045260246000fd5b80820180821115611abb57611abb6127cf565b8181036000831280158383131683831282161715612818576128186127cf565b5092915050565b808201828112600083128015821682158216171561283f5761283f6127cf565b505092915050565b81835281816020850137506000828201602090810191909152601f909101601f19169091010190565b848152836020820152606060408201526000612890606083018486612847565b9695505050505050565b6000600160ff1b82016128af576128af6127cf565b5060000390565b6001600160801b038281168282160390811115611abb57611abb6127cf565b600081600f0b6f7fffffffffffffffffffffffffffffff1981036128fb576128fb6127cf565b60000392915050565b6001600160801b038181168382160190811115611abb57611abb6127cf565b62ffffff8281168282160390811115611abb57611abb6127cf565b81810381811115611abb57611abb6127cf565b6000825160005b818110156129725760208186018101518583015201612958565b506000920191825250919050565b60006020828403121561299257600080fd5b5051919050565b6000602082840312156129ab57600080fd5b8151611a7e816125bb565b6001600160a01b038281168282160390811115611abb57611abb6127cf565b634e487b7160e01b600052601260045260246000fd5b600082612a0857634e487b7160e01b600052601260045260246000fd5b500490565b8082028115828204841417611abb57611abb6127cf56fea2646970667358221220b0094b9fc597ac1a0de89c1f4136f2e89f3c9d1fceb4ec51e4632289c4fdccb864736f6c634300081c0033a264697066735822122084e4b03fbd9da7793bb637c21eb58c97927641a4e5027aa78410a6f144cf37d964736f6c634300081c0033",
  "linkReferences": {},
  "deployedLinkReferences": {}
}